:020000040800F2
:100000000000022025D500082BC0000833C00008DE
:100010003BC0000843C000084BC0000800000000BF
:10002000000000000000000000000000E19900084E
:1000300053C00008000000009D990008CD980008FA
:1000400075D5000875D5000875D5000875D5000868
:1000500075D5000875D5000875D5000875D5000858
:1000600075D5000875D5000875D50008E1A700080A
:1000700075D5000875D5000875D5000875D5000838
:1000800075D5000875D5000875D5000875D5000828
:1000900075D5000875D5000875D5000875D5000818
:1000A00075D5000875D5000875D5000875D5000808
:1000B00061C0000875D5000875D5000875D5000821
:1000C00075D5000875D5000875D5000875D50008E8
:1000D00075D5000875D5000875D5000875D50008D8
:1000E00075D5000875D5000875D5000875D50008C8
:1000F00075D5000875D5000875D5000875D50008B8
:1001000075D5000875D5000875D5000875D50008A7
:1001100075D5000875D5000875D5000875D5000897
:1001200075D5000875D5000875D5000875D5000887
:1001300075D5000875D5000875D5000875D5000877
:1001400075D5000875D5000875D5000875D5000867
:1001500075D5000875D5000875D5000875D5000857
:1001600075D5000875D5000875D5000875D5000847
:1001700075D5000875D5000875D5000875D5000837
:1001800075D5000875D5000875D5000875D5000827
:1001900075D500080000000075D5000875D5000869
:1001A00075D5000875D5000875D50008CDA70008DD
:1001B00075D5000875D5000875D5000875D50008F7
:1001C00075D5000875D5000875D5000875D50008E7
:0801D00075D5000875D5000883
:1001D80081F0004102E000BF83F0004330B54FEAF0
:1001E80041044FEA430594EA050F08BF90EA020F5D
:1001F8001FBF54EA000C55EA020C7FEA645C7FEAF0
:10020800655C00F0E2804FEA5454D4EB5555B8BF12
:100218006D420CDD2C4480EA020281EA030382EA83
:10022800000083EA010180EA020281EA0303362D15
:1002380088BF30BD11F0004F4FEA01314FF4801CE8
:100248004CEA113102D0404261EB410113F0004FFA
:100258004FEA03334CEA133302D0524263EB4303B1
:1002680094EA050F00F0A780A4F10104D5F1200E4F
:100278000DDB02FA0EFC22FA05F2801841F10001AA
:1002880003FA0EF2801843FA05F359410EE0A5F17E
:1002980020050EF1200E012A03FA0EFC28BF4CF0AF
:1002A800020C43FA05F3C01851EBE37101F0004565
:1002B80007D54FF0000EDCF1000C7EEB00006EEB72
:1002C8000101B1F5801F1BD3B1F5001F0CD34908FC
:1002D8005FEA30004FEA3C0C04F101044FEA445253
:1002E80012F5800F80F09A80BCF1004F08BF5FEADA
:1002F800500C50F1000041EB045141EA050130BDBA
:100308005FEA4C0C404141EB0101013C28BFB1F5CB
:10031800801FE9D291F0000F04BF01460020B1FA16
:1003280081F308BF2033A3F10B03B3F120020CDAE9
:100338000C3208DD02F1140CC2F10C0201FA0CF0C7
:1003480021FA02F10CE002F11402D8BFC2F1200C2C
:1003580001FA02F120FA0CFCDCBF41EA0C019040E2
:10036800E41AA2BF01EB0451294330BD6FEA04042B
:100378001F3C1CDA0C340EDC04F11404C4F1200216
:1003880020FA04F001FA02F340EA030021FA04F328
:1003980045EA030130BDC4F10C04C4F1200220FA7F
:1003A80002F001FA04F340EA0300294630BD21FABD
:1003B80004F0294630BD94F0000F83F4801306BF83
:1003C80081F480110134013D4EE77FEA645C18BF77
:1003D8007FEA655C29D094EA050F08BF90EA020F0E
:1003E80005D054EA000C04BF1946104630BD91EA06
:1003F800030F1EBF0021002030BD5FEA545C05D109
:100408004000494128BF41F0004130BD14F5800447
:100418003CBF01F5801130BD01F0004545F0FE41BB
:1004280041F470014FF0000030BD7FEA645C1ABFF0
:10043800194610467FEA655C1CBF0B46024650EA27
:10044800013406BF52EA033591EA030F41F4002153
:1004580030BD00BF90F0000F04BF0021704730B5D9
:100468004FF4806404F132044FF000054FF00001AE
:1004780050E700BF90F0000F04BF0021704730B56F
:100488004FF4806404F1320410F0004548BF404244
:100498004FF000013EE700BF42004FEAE2014FEA99
:1004A80031014FEA02701FBF12F07F4393F07F4F74
:1004B80081F06051704732F07F4208BF704793F077
:1004C8007F4F04BF41F40021704730B54FF460748A
:1004D80001F0004521F000411CE700BF50EA01028D
:1004E80008BF704730B54FF000050AE050EA010236
:1004F80008BF704730B511F0004502D5404261EBA6
:1005080041014FF4806404F132045FEA915C3FF4E6
:10051800D8AE4FF003025FEADC0C18BF03325FEA83
:10052800DC0C18BF033202EBDC02C2F1200300FA34
:1005380003FC20FA02F001FA03FE40EA0E0021FA59
:1005480002F11444BDE600BF70B54FF0FF0C4CF447
:10055800E06C1CEA11541DBF1CEA135594EA0C0FF9
:1005680095EA0C0F00F0DEF82C4481EA030621EA34
:100578004C5123EA4C5350EA013518BF52EA03356F
:1005880041F4801143F4801338D0A0FB02CE4FF021
:100598000005E1FB02E506F00042E0FB03E54FF051
:1005A8000006E1FB03569CF0000F18BF4EF0010E49
:1005B800A4F1FF04B6F5007F64F5407404D25FEA45
:1005C8004E0E6D4146EB060642EAC62141EA5551F8
:1005D8004FEAC52040EA5E504FEACE2EB4F1FD0C3A
:1005E80088BFBCF5E06F1ED8BEF1004F08BF5FEAB8
:1005F800500E50F1000041EB045170BD06F000466A
:1006080046EA010140EA020081EA0301B4EB5C0416
:10061800C2BFD4EB0C0541EA045170BD41F480110E
:100628004FF0000E013C00F3AB8014F1360FDEBF33
:10063800002001F0004170BDC4F10004203C35DA0F
:100648000C341BDC04F11404C4F1200500FA05F392
:1006580020FA04F001FA05F240EA020001F0004233
:1006680021F0004110EBD37021FA04F642EB0601A9
:100678005EEA430E08BF20EAD37070BDC4F10C04D3
:10068800C4F1200500FA04F320FA05F001FA04F297
:1006980040EA020001F0004110EBD37041F1000183
:1006A8005EEA430E08BF20EAD37070BDC4F120058E
:1006B80000FA05F24EEA020E20FA04F301FA05F2F6
:1006C80043EA020321FA04F001F0004121FA04F29E
:1006D80020EA020000EBD3705EEA430E08BF20EA6E
:1006E800D37070BD94F0000F0FD101F000464000A8
:1006F80041EB010111F4801F08BF013CF7D041EA2A
:10070800060195F0000F18BF704703F0004652002D
:1007180043EB030313F4801F08BF013DF7D043EAFE
:100728000603704794EA0C0F0CEA135518BF95EAB4
:100738000C0F0CD050EA410618BF52EA4306D1D13B
:1007480081EA030101F000414FF0000070BD50EA5A
:10075800410606BF1046194652EA430619D094EAE4
:100768000C0F02D150EA013613D195EA0C0F05D1CE
:1007780052EA03361CBF104619460AD181EA030122
:1007880001F0004141F0FE4141F470014FF00000DA
:1007980070BD41F0FE4141F4780170BD70B54FF075
:1007A800FF0C4CF4E06C1CEA11541DBF1CEA1355F5
:1007B80094EA0C0F95EA0C0F00F0A7F8A4EB0504D7
:1007C80081EA030E52EA03354FEA013100F08880CE
:1007D8004FEA03334FF0805545EA131343EA126397
:1007E8004FEA022245EA111545EA10654FEA00264C
:1007F8000EF000419D4208BF964244F1FD0404F505
:10080800407402D25B084FEA3202B61A65EB030560
:100818005B084FEA32024FF480104FF4002CB6EB1D
:10082800020E75EB030E22BFB61A754640EA0C009D
:100838005B084FEA3202B6EB020E75EB030E22BFDD
:10084800B61A754640EA5C005B084FEA3202B6EB1E
:10085800020E75EB030E22BFB61A754640EA9C00DD
:100868005B084FEA3202B6EB020E75EB030E22BFAD
:10087800B61A754640EADC0055EA060E18D04FEA6B
:10088800051545EA16754FEA06164FEAC30343EA0B
:1008980052734FEAC2025FEA1C1CC0D111F4801FD8
:1008A8000BD141EA00014FF000004FF0004CB6E7D1
:1008B80011F4801F04BF01430020B4F1FD0C88BF70
:1008C800BCF5E06F3FF6AFAEB5EB030C04BFB6EB7B
:1008D800020C5FEA500C50F1000041EB045170BD6E
:1008E8000EF0004E4EEA113114EB5C04C2BFD4EB9B
:1008F8000C0541EA045170BD41F480114FF0000E1F
:10090800013C90E645EA060E8DE60CEA135594EA9A
:100918000C0F08BF95EA0C0F3FF43BAF94EA0C0F9D
:100928000AD150EA01347FF434AF95EA0C0F7FF412
:1009380025AF104619462CE795EA0C0F06D152EA66
:1009480003353FF4FDAE1046194622E750EA41064A
:1009580018BF52EA43067FF4C5AE50EA41047FF45B
:100968000DAF52EA43057FF4EBAE12E74FF0FF3CC0
:1009780006E000BF4FF0010C02E000BF4FF0010C91
:100988004DF804CD4FEA410C7FEA6C5C4FEA430C0A
:1009980018BF7FEA6C5C1BD001B050EA410C0CBF59
:1009A80052EA430C91EA030F02BF90EA020F0020BB
:1009B800704710F1000F91EA030F58BF994208BF22
:1009C80090422CBFD8176FEAE37040F001007047DF
:1009D8004FEA410C7FEA6C5C02D150EA013C07D136
:1009E8004FEA430C7FEA6C5CD6D152EA033CD3D081
:1009F8005DF8040B704700BF8446104662468C467B
:100A08001946634600E000BF01B5FFF7B7FF0028AD
:100A180048BF10F1000F01BD4DF808EDFFF7F4FFD6
:100A28000CBF012000205DF808FB00BF4DF808ED61
:100A3800FFF7EAFF34BF012000205DF808FB00BF84
:100A48004DF808EDFFF7E0FF94BF012000205DF8A6
:100A580008FB00BF4DF808EDFFF7CEFF94BF01205B
:100A680000205DF808FB00BF4DF808EDFFF7C4FF54
:100A780034BF012000205DF808FB00BF4FEA410C9D
:100A88007FEA6C5C02D150EA013C0AD14FEA430C80
:100A98007FEA6C5C02D152EA033C02D14FF00000BD
:100AA80070474FF0010070474A0011D212F500124A
:100AB80011D20DD56FF47873B3EB62520ED44FEAAE
:100AC800C12343F0004343EA505323FA02F070472E
:100AD8004FF00000704750EA013002D14FF0FF306C
:100AE80070474FF00000704753B94AB9002908BF52
:100AF80000281CBF4FF0FF314FF0FF3000F00CB85A
:100B0800ADF1080C6DE904CE0DF0DCFDDDF804E074
:100B1800DDE9022304B07047704700BF0348044B67
:100B2800834202D0034B03B118477047EC00002002
:100B3800EC000020000000000548064B1B1AD90FE6
:100B480001EBA301491002D0034B03B118477047CA
:100B5800EC000020EC0000200000000010B5064C5E
:100B6800237843B9FFF7DAFF044B13B10448AFF316
:100B780000800123237010BDF00000200000000059
:100B880008EA000808B5054B1BB105490548AFF34D
:100B98000080BDE80840FFF7CFBF00BF000000009D
:100BA800F400002008EA000880B485B000AF78603F
:100BB80039600023FB7397F90F3018461437BD4688
:100BC8005DF8047B7047000080B584B000AF7860A2
:100BD80039600023FB727B68002B05D1374802F08F
:100BE800B9FC4FF0FF3365E03B68002B05D1344872
:100BF80002F0B0FC4FF0FF335CE0324BD3E9000168
:100C08004FF000024FF04043FFF706FF0346002B6A
:100C180006D03B68D3E900232A49C1E9002305E04F
:100C2800284BD3E900233968C1E90023254BD3E9D0
:100C380000014FF00002244BFFF7EEFE0346002BA5
:100C480002D0224802F086FC7B685B681B68204A59
:100C580013607B685B685B681E4A13607B685B682F
:100C68009B681D4A13607B685B68DB681B4A1360DE
:100C78001B4B00221A6003F0E9F80023FB600023F5
:100C8800FB6007E0174AFB68174942F82310FB6826
:100C98000133FB60FB68012BF4D902F017FD034612
:100CA800FB7297F90B30002B02D1104B01221A70FE
:100CB80097F90B3018461037BD4680BD20EA00086A
:100CC80044EA0008080000200000F0BF70EA0008AD
:100CD80094060020980600209C060020A00600200C
:100CE800A40600200C010020BD3E0008910600204B
:100CF80080B586B000AF78600023FB7500233B61A8
:100D08000023FB732A4B1B78DBB2002B0CBF01239B
:100D18000023DBB2BB73274B02221A707B68002BBF
:100D28000BD1234B1B78DBB2002B06D1224B1B784F
:100D3800DBB2002B01D1012300E00023FB7316E096
:100D48000A2008F0C5FC3B6903F51C5310333B61CE
:100D58007B68B3F1FF3F05D03A697B689A4201D9B5
:100D6800012300E00023FB73002002F007FD104B75
:100D78001B78DBB2002B07D10F4B1B78DBB2002BA3
:100D880002D1FB7B002BDBD00A4B03221A70FB7BC2
:100D9800002B01D09C23FB75BB7B002B01D003F0FB
:100DA80083F997F9173018461837BD4680BD00BF3C
:100DB8008F060020910600209006002080B586B09E
:100DC80000AF034687ED000BFB810023FB75012371
:100DD800BB754FF000024FF00003D7E90001FFF7A1
:100DE80025FE0346002B05D02E4802F0B3FB4FF03A
:100DF800FF3353E0FB89FF2B08D9FB89FF221946F3
:100E0800294802F0A7FB4FF0FF3347E0274B1B7838
:100E1800DBB2032B04D0254B1B78DBB2012B02D1AC
:100E2800224B04221A70FB89012B15D8FB89204A12
:100E380052F82330002B0FD003F0FCFC03467B75DF
:100E48007B7D022B08D1FB89194A52F82330FA8995
:100E5800104698470346BB75FB897B82FB89184679
:100E680097ED000B02F094FBBB7D002B06D07B8A2C
:100E7800184603F0B7FC0346FB7503E07B8A184667
:100E880003F013FD97F91730002B05D097F91730A9
:100E98001946084802F05EFB97F9173018461837CC
:100EA800BD4680BDDCEA000820EB00089106002062
:100EB8000C01002060EB000880B582B000AF002371
:100EC800FB71002002F05AFC0346FB7197F90730CA
:100ED80018460837BD4680BD80B582B000AF0023F4
:100EE800FB710B4B06221A7002F0E6FC0346FB71FD
:100EF8000822002107480DF043FD03F05BF8044B7E
:100F080000221A7097F9073018460837BD4680BD89
:100F1800910600200C01002080B400AF034B1B7821
:100F2800DBB21846BD465DF8047B7047900600208A
:100F380080B400AF034B1B78DBB21846BD465DF8A2
:100F4800047B7047A806002080B483B000AF7860A7
:100F58007B681B6843F001027B681A6000BF0C378E
:100F6800BD465DF8047B704780B483B000AF7860FD
:100F78007B681B6823F001027B681A6000BF0C378E
:100F8800BD465DF8047B704780B483B000AF7860DD
:100F980039607B681B6823F004023B681A437B684E
:100FA8001A6000BF0C37BD465DF8047B704780B4FB
:100FB80083B000AF78607B681B6803F004031846B1
:100FC8000C37BD465DF8047B704780B483B000AF32
:100FD800786039607B683A681A6300BF0C37BD4691
:100FE8005DF8047B704780B483B000AF78607B689D
:100FF8005B6943F001027B685A6100BF0C37BD464C
:101008005DF8047B704780B483B000AF78607B687C
:101018001B6918460C37BD465DF8047B7047000015
:1010280080B485B000AF78607B681B689A68074B0E
:101038001340FB60FB68062B0CBF01230023DBB2C7
:1010480018461437BD465DF8047B70470700010059
:1010580080B584B000AF78600B46FB707B681B6876
:101068001846FFF7A4FFF860FB78002B23D07B68B5
:101078001B68374A934218D07B681B68354A9342ED
:1010880013D07B681B68344A93420ED07B681B6878
:10109800324A934209D07B681B68314A934204D094
:1010A8007B681B682F4A934205D17B681B68002127
:1010B8001846FFF78AFFFB68042B11D07B681B6872
:1010C80004211846FFF760FF7B681B681846FFF786
:1010D8008AFF7B681B68F9681846FFF755FF04E02C
:1010E8007B681B681846FFF77EFF7B681B681846FD
:1010F800FFF72AFFFB78002B25D07B681B68144A72
:10110800934218D07B681B68124A934213D07B68BD
:101118001B68114A93420ED07B681B680F4A9342A2
:1011280009D07B681B680E4A934204D07B681B6811
:101138000C4A934207D17B681A687B685B79194629
:101148001046FFF742FF00BF1037BD4680BD00BF05
:10115800002C01400034014000400140004401409F
:10116800004801400050014080B582B000AF78606F
:101178007B681B681846FFF7F7FE00BF0837BD46B7
:1011880080BD80B483B000AF78607B6800221A709D
:101198007B6801221A737B6801225A607B680122EE
:1011A8001A7200BF0C37BD465DF8047B704700001B
:1011B80080B584B000AF78600948FFF724FFF86075
:1011C800FB6803F40053002B14BF01230023DBB298
:1011D8001A467B681A7000BF1037BD4680BD00BF35
:1011E8000008004880B483B000AF78607B681B7843
:1011F800002B02D17B6801221A7000BF0C37BD4654
:101208005DF8047B704780B483B000AF78607B687A
:101218004FF0FF321A6000BF0C37BD465DF8047B03
:10122800704780B588B000AF87ED060B87ED021BCD
:1012380039617A603B600346FB753B684FF0FF32CB
:101248001A60FB7D002B0CD07968D7E90623C1E929
:10125800002339694FF000024FF00003C1E9002371
:101268000FE07968D7E90223C1E90023D7E902230F
:10127800D7E90601FEF7B0FF02460B463969C1E916
:10128800002300BF2037BD4680BD80B483B000AFC7
:1012980078607B684FF0FF321A6000BF0C37BD469C
:1012A8005DF8047B7047000080B58AB000AF87ED19
:1012B800080B87ED061B87ED042BF860B9607A6090
:1012C8007B684FF0FF321A6048A3D3E90023D7E9BF
:1012D8000601FFF7BFFB0346002B29D04FF00002A1
:1012E800414BD7E90401FEF779FF02460B46104649
:1012F800194639A3D3E90023FFF726F902460B461E
:1013080010461946D7E90823FEF766FF02460B4642
:10131800F968C1E900234FF00002334BD7E9040113
:10132800FEF75AFF02460B46B968C1E900234CE0B4
:101338002BA3D3E90023D7E90601FFF781FB034676
:10134800002B29D04FF00002274BD7E90401FEF704
:1013580045FF02460B46104619461FA3D3E9002352
:10136800FFF7F2F802460B4610461946D7E908235C
:10137800FEF734FF02460B46F968C1E900234FF037
:101388000002194BD7E90401FEF728FF02460B4675
:10139800B968C1E9002318E00FA3D3E90023D7E90E
:1013A8000401FFF7D1F802460B4610461946D7E963
:1013B8000823FEF713FF02460B46F968C1E900232C
:1013C800B968D7E90423C1E9002300BF2837BD461F
:1013D80080BD00BFAFF3008000000000E0FFED40DB
:1013E80000000000E0FFDDC00000F03F000000004A
:1013F800E0FFDD4080B5A6B000AF78607B680122D1
:101408005A60204BBB6000233B7300237B7307F1BA
:10141800080318460CF0C8FE02467B68DA607B6851
:10142800DB68002118460CF09BFB022387F89730F5
:101438007B68DB6897F89720114618460CF054FD36
:101448007B68DB6897F89720114618460CF0FCFD7E
:101458007B68DB681846FFF7E3FD034687F896309C
:1014680097F89630002B05D17B68DB680021184679
:10147800FFF7EEFD7B6801221A7200BF9837BD4660
:1014880080BD00BF0004004080B5A6B000AF786002
:101498007B6801225A60204BBB6000233B7300230A
:1014A8007B7307F1080318460CF07EFE02467B6842
:1014B800DA607B68DB68002118460CF051FB0223D8
:1014C80087F897307B68DB6897F8972011461846AD
:1014D8000CF00AFD7B68DB6897F8972011461846E0
:1014E8000CF0B2FD7B68DB681846FFF799FD0346F0
:1014F80087F8963097F89630002B05D17B68DB6823
:1015080000211846FFF7A4FD7B6801221A7200BF6C
:101518009837BD4680BD00BF0008004080B5A6B022
:1015280000AF78607B6801225A60204BBB600023C3
:101538003B7300237B7307F1080318460CF034FE55
:1015480002467B68DA607B68DB68002118460CF08D
:1015580007FB022387F897307B68DB6897F89720AA
:10156800114618460CF0C0FC7B68DB6897F897209A
:10157800114618460CF068FD7B68DB681846FFF7D3
:101588004FFD034687F8963097F89630002B05D123
:101598007B68DB6800211846FFF75AFD7B6801224B
:1015A8001A7200BF9837BD4680BD00BF0050014089
:1015B800B0B52DED028B8AB000AF4FF09040FFF729
:1015C80022FDF861FB6903F04003002B03D04FF0C4
:1015D8000000924903E04FF000004FF000014FF087
:1015E80000028F4BFEF7F8FD02460B468D49C1E914
:1015F80000238D48FFF7DCFD8C4B5B6E0022002139
:1016080018460CF071FE0346864AC2F8FC30854B3A
:10161800D3F8FC301846FEF71DFF02460B468149F9
:10162800C1E902237F4B93ED028B7E4BD3E9020184
:101638007E4BD3E91E23FEF7CFFD02460B4643EC53
:10164800162B7A4B93ED207B3B46794A794918460D
:10165800B0EE472AF0EE672AB0EE461AF0EE661AA8
:10166800B0EE480AF0EE680AFFF71EFE97ED007B21
:101678006C4B93F80B016D4B93ED2A6B6E4B6F4AD5
:101688006F49B0EE461AF0EE661AB0EE470AF0EE71
:10169800670AFFF7C6FD634BD3E93A014FF0000232
:1016A800684BFEF751FF02460B465E49C1E9042329
:1016B800654BD3F84C31D3E90023C7E900235B4BD2
:1016C800D3E92C01D7E90023FFF7C4F90346002B1F
:1016D80011D0564BD3E93001D7E90023FFF7BAF907
:1016E8000346002B07D04F494FF000024FF000038C
:1016F800C1E9062351E04D4BD3E92C23C7E9022366
:10170800524B7B62494BD3E92C01484BD3E9302338
:10171800FFF78CF90346002B11D0444BD3E9300175
:10172800D7E90023FFF782F90346002B18D03F4B77
:10173800D3E93023C7E90223454B7B6210E03B4BDA
:10174800D3E92C01D7E90023FFF784F90346002BDE
:1017580006D0364BD3E93023C7E902233C4B7B62E2
:10176800304BD3E904017B6AD3E90023FEF734FD4B
:1017780002460B4614461D46D7E90001D7E9022365
:10178800FEF72AFD02460B4620462946FFF706F8D3
:1017980002460B462349C1E90623244BD3E9340109
:1017A800D7E90023FFF756F90346002B11D01F4B4A
:1017B800D3E93801D7E90023FFF74CF90346002B9A
:1017C80007D018494FF000024FF00003C1E9082381
:1017D80072E0164BD3E93423C7E902231D4B7B6221
:1017E800124BD3E93401114BD3E93823FFF71EF923
:1017F8000346002B32D00D4BD3E93801D7E900233B
:10180800FFF714F90346002B39D0084BD3E93823E6
:10181800C7E90223104B7B6231E000BF0000F03FB4
:101828000000F83F180100202302002028020020B1
:1018380078040020D801002090040020080200202D
:101848000002002000000E40C8040020E002002032
:10185800F00200200003002010030020764BD3E99B
:101868003401D7E90023FFF7F5F80346002B06D02B
:10187800714BD3E93823C7E90223704B7B62704B65
:10188800D3E906017B6AD3E90023FEF7A5FC0246EB
:101898000B4614461D46D7E90001D7E90223FEF797
:1018A8009BFC02460B4620462946FEF777FF024678
:1018B8000B466349C1E90823614BD3E93A015CA3AC
:1018C800D3E90023FEF740FE02460B465C49C1E916
:1018D8000A23594BD3E93C01D7E90023FFF7BAF8AB
:1018E8000346002B11D0544BD3E94001D7E900231C
:1018F800FFF7B0F80346002B07D051494FF000021C
:101908004FF00003C1E90C2351E04B4BD3E93C23D2
:10191800C7E902234B4B7B62474BD3E93C01464B5B
:10192800D3E94023FFF782F80346002B11D0424B3E
:10193800D3E94001D7E90023FFF778F80346002BE5
:1019480018D03D4BD3E94023C7E902233E4B7B62C5
:1019580010E0394BD3E93C01D7E90023FFF77AF8C7
:101968000346002B06D0344BD3E94023C7E90223B2
:10197800354B7B62324BD3E90A017B6AD3E90023FA
:10198800FEF72AFC02460B4614461D46D7E900011D
:10199800D7E90223FEF720FC02460B4620462946DB
:1019A800FEF7FCFE02460B462549C1E90C23224BF3
:1019B800D3E94401D7E90023FFF74CF80346002B8D
:1019C80011D01D4BD3E94801D7E90023FFF742F8AE
:1019D8000346002B07D01A494FF000024FF00003CE
:1019E800C1E90E2364E0144BD3E94423C7E9022379
:1019F800164B7B62104BD3E944010F4BD3E94823C4
:101A0800FFF714F80346002B24D00B4BD3E9480109
:101A1800D7E90023FFF70AF80346002B2BD0064B23
:101A2800D3E94823C7E90223094B7B6223E000BFBF
:101A380065732D3852C1B03F2802002010030020E2
:101A4800180100202003002030030020400300205C
:101A5800500300209D4BD3E94401D7E90023FEF74A
:101A6800F9FF0346002B06D0984BD3E94823C7E972
:101A78000223974B7B62974BD3E90C017B6AD3E92E
:101A88000023FEF7A9FB02460B4614461D46D7E97C
:101A98000001D7E90223FEF79FFB02460B462046CA
:101AA8002946FEF77BFE02460B468A49C1E90E230A
:101AB8008948FFF77DFB854B5B6D002200211846A6
:101AC8000CF012FC0346834AC2F8F830814BD3F875
:101AD800F8301846FEF7BEFC02460B467D49C1E9C0
:101AE80010237C4B93ED108B7A4BD3E91001774B85
:101AF800D3E92223FEF770FB02460B4643EC162B74
:101B0800724B93ED247B07F10803744A7449184615
:101B1800B0EE472AF0EE672AB0EE461AF0EE661AE3
:101B2800B0EE480AF0EE680AFFF7BEFB97ED027BBD
:101B3800684B93F80A01654B93ED4C6B694B6A4A05
:101B48006A49B0EE461AF0EE661AB0EE470AF0EEB1
:101B5800670AFFF766FB5F4BD3E936014FF00002D7
:101B6800634BFEF7F1FC02460B465A49C1E91223C2
:101B7800564BD3E94E01D7E90023FEF76BFF034626
:101B8800002B11D0514BD3E95201D7E90023FEF7BE
:101B980061FF0346002B07D04E494FF000024FF07B
:101BA8000003C1E9142351E0484BD3E94E23C7E9A8
:101BB8000223504B7B62454BD3E94E01434BD3E99B
:101BC8005223FEF733FF0346002B11D03F4BD3E9D6
:101BD8005201D7E90023FEF729FF0346002B18D04E
:101BE8003A4BD3E95223C7E90223434B7B6210E007
:101BF800364BD3E94E01D7E90023FEF72BFF034606
:101C0800002B06D0314BD3E95223C7E902233A4BC4
:101C18007B62304BD3E912017B6AD3E90023FEF7DC
:101C2800DBFA02460B4614461D46D7E90001D7E900
:101C38000223FEF7D1FA02460B4620462946FEF754
:101C4800ADFD02460B462349C1E914231F4BD3E9D6
:101C58005601D7E90023FEF7FDFE0346002B11D0FD
:101C68001A4BD3E95A01D7E90023FEF7F3FE0346DE
:101C7800002B07D017494FF000024FF00003C1E9CD
:101C880016236DE0114BD3E95623C7E902231B4BFA
:101C98007B620E4BD3E956010C4BD3E95A23FEF76E
:101CA800C5FE0346002B2DD0084BD3E95A01D7E9CE
:101CB8000023FEF7BBFE0346002B34D0034BD3E9C9
:101CC8005A23C7E902230E4B7B622CE0280200202E
:101CD8005003002018010020220200207004002078
:101CE800D001002088040020F8010020F001002025
:101CF80000001E40680300207803002088030020AD
:101D080098030020764BD3E95601D7E90023FEF764
:101D1800A1FE0346002B06D0714BD3E95A23C7E92D
:101D28000223704B7B62704BD3E914017B6AD3E9C1
:101D38000023FEF751FA02460B4614461D46D7E922
:101D48000001D7E90223FEF747FA02460B46204670
:101D58002946FEF723FD02460B466349C1E91623CF
:101D6800614BD3E936015CA3D3E90023FEF7ECFB12
:101D780002460B465C49C1E91823594BD3E95E0179
:101D8800D7E90023FEF766FE0346002B11D0544B1B
:101D9800D3E96201D7E90023FEF75CFE0346002B76
:101DA80007D051494FF000024FF00003C1E91A2350
:101DB80051E04B4BD3E95E23C7E902234B4B7B62CF
:101DC800474BD3E95E01464BD3E96223FEF72EFE6B
:101DD8000346002B11D0424BD3E96201D7E9002317
:101DE800FEF724FE0346002B18D03D4BD3E96223AF
:101DF800C7E902233E4B7B6210E0394BD3E95E0111
:101E0800D7E90023FEF726FE0346002B06D0344B05
:101E1800D3E96223C7E90223354B7B62324BD3E90E
:101E280018017B6AD3E90023FEF7D6F902460B4670
:101E380014461D46D7E90001D7E90223FEF7CCF97D
:101E480002460B4620462946FEF7A8FC02460B46EA
:101E58002549C1E91A23224BD3E96601D7E90023B2
:101E6800FEF7F8FD0346002B11D01D4BD3E96A019C
:101E7800D7E90023FEF7EEFD0346002B07D01A49E9
:101E88004FF000024FF00003C1E91C2364E0144B3B
:101E9800D3E96623C7E90223164B7B62104BD3E9CB
:101EA80066010F4BD3E96A23FEF7C0FD0346002BFA
:101EB80024D00B4BD3E96A01D7E90023FEF7B6FD1E
:101EC8000346002B2BD0064BD3E96A23C7E902232C
:101ED800094B7B6223E000BF65732D3852C1C03FB8
:101EE800280200209803002018010020A8030020E1
:101EF800B8030020C8030020D80300209D4BD3E975
:101F08006601D7E90023FEF7A5FD0346002B06D09E
:101F1800984BD3E96A23C7E90223974B7B62974B17
:101F2800D3E91A017B6AD3E90023FEF755F9024683
:101F38000B4614461D46D7E90001D7E90223FEF7F0
:101F48004BF902460B4620462946FEF727FC024677
:101F58000B468A49C1E91C238948FFF729F9854BB3
:101F68005B6F0022002118460CF0BEF90346834A35
:101F7800C2F80031814BD3F800311846FEF76AFAEF
:101F880002460B467D49C1E91E237C4B93ED1E8B0F
:101F98007A4BD3E91E01774BD3E92623FEF71CF9C8
:101FA80002460B4643EC162B724B93ED287B07F148
:101FB8000803744A74491846B0EE472AF0EE672AB7
:101FC800B0EE461AF0EE661AB0EE480AF0EE680A6D
:101FD800FFF76AF997ED027B684B93F80901654BA7
:101FE80093ED6E6B694B6A4A6A49B0EE461AF0EE99
:101FF800661AB0EE470AF0EE670AFFF712F95F4B70
:10200800D3E932014FF00002634BFEF79DFA024616
:102018000B465A49C1E92023564BD3E97001D7E949
:102028000023FEF717FD0346002B11D0514BD3E9CF
:102038007401D7E90023FEF70DFD0346002B07D0F6
:102048004E494FF000024FF00003C1E9222351E04E
:10205800484BD3E97023C7E90223504B7B62454BB9
:10206800D3E97001434BD3E97423FEF7DFFC034641
:10207800002B11D03F4BD3E97401D7E90023FEF7B9
:10208800D5FC0346002B18D03A4BD3E97423C7E993
:102098000223434B7B6210E0364BD3E97001D7E94A
:1020A8000023FEF7D7FC0346002B06D0314BD3E9BB
:1020B8007423C7E902233A4B7B62304BD3E92001F2
:1020C8007B6AD3E90023FEF787F802460B461446DD
:1020D8001D46D7E90001D7E90223FEF77DF802463D
:1020E8000B4620462946FEF759FB02460B46234974
:1020F800C1E922231F4BD3E97801D7E90023FEF772
:10210800A9FC0346002B11D01A4BD3E97C01D7E96F
:102118000023FEF79FFC0346002B07D017494FF01A
:1021280000024FF00003C1E924236DE0114BD3E90D
:102138007823C7E902231B4B7B620E4BD3E9780156
:102148000C4BD3E97C23FEF771FC0346002B2DD002
:10215800084BD3E97C01D7E90023FEF767FC034667
:10216800002B34D0034BD3E97C23C7E902230E4B61
:102178007B622CE028020020D803002018010020F0
:102188002102002068040020C801002080040020EB
:10219800E8010020E001002000002E40F0030020AC
:1021A800000400201004002020040020764BD3E90E
:1021B8007801D7E90023FEF74DFC0346002B06D033
:1021C800714BD3E97C23C7E90223704B7B62704BC8
:1021D800D3E922017B6AD3E90023FDF7FDFF02461C
:1021E8000B4614461D46D7E90001D7E90223FDF73F
:1021F800F3FF02460B4620462946FEF7CFFA024671
:102208000B466349C1E92423614BD3E932015CA33E
:10221800D3E90023FEF798F902460B465C49C1E969
:102228002623594BD3E98001D7E90023FEF712FC96
:102238000346002B11D0544BD3E98401D7E900237E
:10224800FEF708FC0346002B07D051494FF0000267
:102258004FF00003C1E9282351E04B4BD3E9802319
:10226800C7E902234B4B7B62474BD3E98001464BBE
:10227800D3E98423FEF7DAFB0346002B11D0424B47
:10228800D3E98401D7E90023FEF7D0FB0346002BEE
:1022980018D03D4BD3E98423C7E902233E4B7B6228
:1022A80010E0394BD3E98001D7E90023FEF7D2FBD0
:1022B8000346002B06D0344BD3E98423C7E9022315
:1022C800354B7B62324BD3E926017B6AD3E9002385
:1022D800FDF782FF02460B4614461D46D7E900016A
:1022E800D7E90223FDF778FF02460B462046294628
:1022F800FEF754FA02460B462549C1E92823224B2A
:10230800D3E98801D7E90023FEF7A4FB0346002B95
:1023180011D01D4BD3E98C01D7E90023FEF79AFBB6
:102328000346002B07D01A494FF000024FF0000374
:10233800C1E92A2364E0144BD3E98823C7E90223BF
:10234800164B7B62104BD3E988010F4BD3E98C23E2
:10235800FEF76CFB0346002B24D00B4BD3E98C0112
:10236800D7E90023FEF762FB0346002B2BD0064B70
:10237800D3E98C23C7E90223094B7B6223E000BF22
:1023880065732D3852C1D03F280200202004002058
:1023980018010020300400204004002050040020D0
:1023A80060040020934BD3E98801D7E90023FEF7A6
:1023B80051FB0346002B06D08E4BD3E98C23C7E98B
:1023C80002238D4B7B628D4BD3E928017B6AD3E9CD
:1023D8000023FDF701FF02460B4614461D46D7E9C8
:1023E8000001D7E90223FDF7F7FE02460B46204617
:1023F8002946FEF7D3F902460B468049C1E92A234C
:102408004FF09040FEF7FFFDF861FB6903F0100301
:10241800002B14BF01230023DBB21A46774B83F845
:1024280008214FF09040FEF7EEFDF861FB6903F4D8
:102438000063002B14BF01230023DBB21A466F4B45
:1024480083F807214FF09040FEF7DDFDF861FB6946
:1024580003F48053002B14BF01230023DBB21A4678
:10246800664B83F806216648FEF7CDFDF861FB69E7
:1024780003F00803002B14BF01230023DBB21A4624
:102488005E4B83F805215F48FEF7BDFDF861FB69E7
:1024980003F00403002B14BF01230023DBB21A4608
:1024A800564B83F80421554BD3E902235149C1E91E
:1024B8001E23524BD3E930234E49C1E920234F4B09
:1024C800D3E93C234B49C1E92A234A4BD3E92C01E0
:1024D8004D4BD3E90023FEF79FFA0346002B0AD0A1
:1024E8004A4BD3F84C31D3E900234249C1E92C23A4
:1024F800474B3B6235E03F4BD3E93001424BD3E9D0
:102508000023FEF789FA0346002B0AD03F4BD3F885
:102518004C31D3E900233749C1E930233D4B3B62B5
:102528001FE0344BD3E92C01324BD3E93023FEF7BB
:102538007DFA0346002B0AD0344BD3F84C31D3E94B
:1025480000232C49C1E92C23314B3B6209E02F4B76
:10255800D3F84C31D3E900232649C1E930232D4B68
:102568003B62264BD3E90423396AC1E90023214B96
:10257800D3E93401244BD3E90023FEF74DFA03468F
:10258800002B0AD0214BD3F84C31D3E90023194949
:10259800C1E93423204B3B624CE0164BD3E93801A8
:1025A800194BD3E90023FEF737FA0346002B0AD06C
:1025B800164BD3F84C31D3E900230E49C1E938232F
:1025C800164B3B6236E00B4BD3E93401094BD3E998
:1025D8003823FEF72BFA0346002B21D00B4BD3F8F8
:1025E8004C31D3E900230349C1E934230A4B3B6248
:1025F80020E000BF2802002060040020180100200D
:10260800000800480004004800000020C80400201A
:10261800E0020020F0020020000300201003002048
:10262800834BD3F84C31D3E900238249C1E93823DD
:10263800814B3B62814BD3E90623396AC1E9002308
:102648007C4BD3E93C017E4BD3E90023FEF7E4F948
:102658000346002B0AD0764BD3F84C31D3E900233C
:102668007449C1E93C23774B3B6235E0714BD3E9B0
:102678004001734BD3E90023FEF7CEF90346002B44
:102688000AD06B4BD3F84C31D3E900236949C1E92F
:1026980040236D4B3B621FE0664BD3E93C01654B21
:1026A800D3E94023FEF7C2F90346002B0AD0604B5A
:1026B800D3F84C31D3E900235E49C1E93C23614B8F
:1026C8003B6209E05A4BD3F84C31D3E9002359490E
:1026D800C1E940235C4B3B62584BD3E90A23396A72
:1026E800C1E90023534BD3E94401554BD3E90023F7
:1026F800FEF792F90346002B0AD04D4BD3F84C3124
:10270800D3E900234B49C1E94423504B3B6235E0F0
:10271800484BD3E948014A4BD3E90023FEF77CF93B
:102728000346002B0AD0424BD3F84C31D3E900239F
:102738004049C1E94823464B3B621FE03D4BD3E982
:1027480044013C4BD3E94823FEF770F90346002BBC
:102758000AD0374BD3F84C31D3E900233549C1E9C6
:1027680044233A4B3B6209E0314BD3F84C31D3E96F
:1027780000233049C1E94823354B3B622F4BD3E94D
:102788000C23396AC1E900232C4BD3E910232949CA
:10279800C1E92223294BD3E92E232649C1E9242361
:1027A800264BD3E938232349C1E94C23214BD3E9EC
:1027B8004E01234BD3E90023FEF72EF90346002BE5
:1027C8000AD01B4BD3F84C31D3E900231949C1E98E
:1027D8004E23204B3B624BE0164BD3E95201184B7A
:1027E800D3E90023FEF718F90346002B0AD0104B53
:1027F800D3F84C31D3E900230E49C1E95223164BD3
:102808003B6235E00B4BD3E94E010A4BD3E9522327
:10281800FEF70CF90346002B20D0054BD3F84C31BA
:10282800D3E900230349C1E94E230A4B3B621FE069
:10283800C8040020280200201003002018010020EE
:102848000000002020030020300300204003002067
:102858005003002068030020780300207A4BD3F847
:102868004C31D3E900237949C1E95223784B3B62C3
:10287800784BD3E91223396AC1E90023734BD3E9B2
:102888005601754BD3E90023FEF7C6F80346002B23
:102898000AD06D4BD3F84C31D3E900236B49C1E919
:1028A80056236E4B3B6235E0684BD3E95A016A4BBD
:1028B800D3E90023FEF7B0F80346002B0AD0624B99
:1028C800D3F84C31D3E900236049C1E95A23644B5A
:1028D8003B621FE05D4BD3E956015C4BD3E95A23B9
:1028E800FEF7A4F80346002B0AD0574BD3F84C3117
:1028F800D3E900235549C1E95623584B3B6209E007
:10290800514BD3F84C31D3E900235049C1E95A233C
:10291800534B3B624F4BD3E91423396AC1E9002377
:102928004A4BD3E95E014C4BD3E90023FEF774F818
:102938000346002B0AD0444BD3F84C31D3E900238B
:102948004249C1E95E23474B3B6235E03F4BD3E93F
:102958006201414BD3E90023FEF75EF80346002BE2
:102968000AD0394BD3F84C31D3E900233749C1E9B0
:1029780062233D4B3B621FE0344BD3E95E01334B8E
:10298800D3E96223FEF752F80346002B0AD02E4BF8
:10299800D3F84C31D3E900232C49C1E95E23314BEC
:1029A8003B6209E0284BD3F84C31D3E9002327498F
:1029B800C1E962232C4B3B62264BD3E91823396AC1
:1029C800C1E90023214BD3E96601234BD3E9002356
:1029D800FEF722F80346002B0AD01B4BD3F84C31E4
:1029E800D3E900231949C1E96623204B3B624BE038
:1029F800164BD3E96A01184BD3E90023FEF70CF80C
:102A08000346002B0AD0104BD3F84C31D3E90023EE
:102A18000E49C1E96A23164B3B6235E00B4BD3E9FB
:102A280066010A4BD3E96A23FEF700F80346002B38
:102A380020D0054BD3F84C31D3E900230349C1E931
:102A480066230A4B3B621FE0C804002028020020CE
:102A580078030020180100200000002088030020CF
:102A680098030020A8030020B8030020C803002012
:102A7800D8030020834BD3F84C31D3E90023824993
:102A8800C1E96A23814B3B62814BD3E91A23396A36
:102A9800C1E900237E4BD3E91E237B49C1E92623E4
:102AA8007B4BD3E92C237849C1E92823784BD3E918
:102AB80034237549C1E96E23734BD3E97001754B13
:102AC800D3E90023FDF7A8FF0346002B0AD06D4B7E
:102AD800D3F84C31D3E900236B49C1E970236E4B1D
:102AE8003B6235E0684BD3E974016A4BD3E90023B4
:102AF800FDF792FF0346002B0AD0624BD3F84C3106
:102B0800D3E900236049C1E97423644B3B621FE0A9
:102B18005D4BD3E970015C4BD3E97423FDF786FF65
:102B28000346002B0AD0574BD3F84C31D3E9002386
:102B38005549C1E97023584B3B6209E0514BD3F822
:102B48004C31D3E900235049C1E97423534B3B620C
:102B58004F4BD3E92023396AC1E900234A4BD3E913
:102B680078014C4BD3E90023FDF756FF0346002BB1
:102B78000AD0444BD3F84C31D3E900234249C1E988
:102B88007823474B3B6235E03F4BD3E97C01414B0F
:102B9800D3E90023FDF740FF0346002B0AD0394B49
:102BA800D3F84C31D3E900233749C1E97C233D4BA5
:102BB8003B621FE0344BD3E97801334BD3E97C23E4
:102BC800FDF734FF0346002B0AD02E4BD3F84C31C7
:102BD800D3E900232C49C1E97823314B3B6209E052
:102BE800284BD3F84C31D3E900232749C1E97C238A
:102BF8002C4B3B62264BD3E92223396AC1E90023D7
:102C0800214BD3E98001234BD3E90023FDF704FFCF
:102C18000346002B0AD01B4BD3F84C31D3E90023D1
:102C28001949C1E98023204B3B624BE0164BD3E99D
:102C38008401184BD3E90023FDF7EEFE0346002B71
:102C48000AD0104BD3F84C31D3E900230E49C1E91F
:102C58008423164B3B6235E00B4BD3E980010A4BCA
:102C6800D3E98423FDF7E2FE0346002B20D0054B71
:102C7800D3F84C31D3E900230349C1E980230A4B37
:102C88003B621FE0C804002028020020D80300206F
:102C98001801002000000020F0030020000400209C
:102CA80010040020200400203004002040040020EC
:102CB800514BD3F84C31D3E900235049C1E984235F
:102CC8004F4B3B624F4BD3E92623396AC1E90023B6
:102CD8004A4BD3E988014C4BD3E90023FDF79CFE0E
:102CE8000346002B0AD0444BD3F84C31D3E90023D8
:102CF8004249C1E98823454B3B6235E03F4BD3E964
:102D08008C01414BD3E90023FDF786FE0346002BD7
:102D18000AD0394BD3F84C31D3E900233749C1E9FC
:102D28008C233B4B3B621FE0344BD3E98801334B88
:102D3800D3E98C23FDF77AFE0346002B0AD02E4BED
:102D4800D3F84C31D3E900232C49C1E988232F4B10
:102D58003B6209E0284BD3F84C31D3E900232749DB
:102D6800C1E98C232A4B3B62264BD3E92823396AD5
:102D7800C1E900230023FB761F4BD3F838311846EE
:102D8800FDF768FB1AA3D3E90023FDF7DDFB024634
:102D98000B46C7E9042397ED040B0120FEF70EF854
:102DA8000346FB76144BD3F828210132C3F82821B7
:102DB800D3F828311846FDF74DFB0F4BD3E94C23C8
:102DC8000D4CD4F84C41FDF7BFFB02460B46C4E955
:102DD8000023094BD3F838210132C3F8382100BF4A
:102DE8002837BD46BDEC028BB0BD00BFAFF30080F5
:102DF8007B14AE47E17A843FC804002028020020F3
:102E08004004002018010020000000205004002089
:102E1800600400200000000080B500AF8A4B8A4A99
:102E280003F5A473D360884B874A03F5A673C2F8E9
:102E38008430854B844A03F598739362824A824BA7
:102E4800C3F8D020804B804A9A607F4BDB68012210
:102E58001A707D4B002283F8FC207B4B002283F8FC
:102E68000C21794B794A5A61774B774A03F5A87355
:102E7800C2F84C3174494FF00002754BC1E9502338
:102E880071496FA3D3E90023C1E94C236E4B714A02
:102E9800C3F810216C4B704AC3F814216A4B6F4A6F
:102EA800C3F81821684B6E4AC3F81C21664B6D4A5B
:102EB8005A606C4B6C4A1A606B4B6C4A1A606A4BCE
:102EC8006A4A5A60684B694A9A60674B674ADA608F
:102ED800654B664A1A61644B644A5A61624B634A9D
:102EE8009A61614B614ADA615F4B604A1A625E4BD4
:102EF8005E4A5A625C4B5D4A9A625B4B5B4ADA6295
:102F0800594B5A4A1A63584B584A5A63564B574AB0
:102F18009A63554B554ADA63534B544A1A64524BD9
:102F2800524A5A64504B514A9A64474A464B5B6826
:102F380002F590729A60444A434B5B6802F58872C6
:102F48005A60414A404B5B68D2F84C21DA60484BE2
:102F5800D3E900234749C1E92C23454BD3E9002392
:102F68004449C1E93023424BD3E900234149C1E92F
:102F780034233F4BD3E900233E49C1E938233C4B76
:102F8800D3E900233B49C1E93C23394BD3E900236A
:102F98003849C1E94023364BD3E900233549C1E913
:102FA8004423334BD3E900233249C1E94823304B4A
:102FB800D3E900232F49C1E94E232D4BD3E9002340
:102FC8002C49C1E952232A4BD3E900232949C1E9F5
:102FD8005623274BD3E900232649C1E95A23244B1A
:102FE800D3E900232349C1E95E23214BD3E9002318
:102FF8002049C1E962231E4BD3E900231D49C1E9D9
:1030080066231B4BD3E900231A49C1E96A23184BED
:10301800D3E900231749C1E97023154BD3E90023ED
:103028001449C1E97423124BD3E900231149C1E9BA
:1030380078230F4BD3E900231EE000BFAFF30080D5
:103048007B14AE47E17A843FC8040020DCEC00081A
:103058000000F0BF2025A1254E2A963A5E7F018EFA
:10306800F81485D5280600203C060020C012010867
:1030780000000020280200204949C1E97C23494B6F
:10308800D3E900234649C1E98023464BD3E900230D
:103098004349C1E98423434BD3E900234049C1E9AB
:1030A8008823404BD3E900233D49C1E98C233E489E
:1030B800FEF7EBF83D48FEF7A6F83D48FEF7E5F8C1
:1030C8003C48FEF7A0F83C48FEF7DFF83B48FEF71F
:1030D8009AF8334B002283F83020314B01225A638F
:1030E8002F4B012283F838203548FEF74AF82C4B3D
:1030F8000022DA652A4B002283F858203148FEF76F
:1031080079F93148FEF73DF8254B0022DA64244B63
:10311800002283F848202D48FEF7B6F92C48FEF720
:1031280030F81F4B0022DA661D4B002283F8682016
:103138002848FEF7F3F91A4B002283F83C20184B75
:1031480001221A64164B012283F84420144B0022F2
:1031580083F82420124B01229A62114B012283F832
:103168002C200F4B00221A760D4B0122DA610C4BF2
:10317800012283F820200A4B00221A73084B0122EF
:103188001A61074B01221A75054B00221A70044B6D
:1031980001225A60024B01221A7200BF80BD00BF93
:1031A800280200200000002078040020900400205D
:1031B8007004002088040020680400208004002097
:1031C800B804002080020020A8040020700200201B
:1031D800980400209002002080B582B000AF624BB6
:1031E80093F83030002B03D15F4B012283F8302055
:1031F8005E48FDF7F7FF5C4B93F85830002B27D15A
:10320800594B012283F85820574BDB6D012B1FD1F6
:10321800554B93F86030002B1AD0534B5B6E184611
:10322800FDF7A2FF504B5B6E002118460AF07AFDAD
:103238000223FB714C4B5B6EFA79114618460AF073
:10324800ABFE494B5B6EFA79114618460AF054FFFB
:103258004748FDF7C7FF444B93F84830002B27D168
:10326800414B012283F848203F4BDB6C012B1FD1D7
:103278003D4B93F85030002B1AD03B4B5B6D1846F2
:10328800FDF772FF384B5B6D002118460AF04AFDC6
:103298000223FB71344B5B6DFA79114618460AF02C
:1032A8007BFE314B5B6DFA79114618460AF024FF14
:1032B8003048FDF797FF2C4B93F86830002B27D147
:1032C800294B012283F86820274BDB6E012B1FD185
:1032D800254B93F87030002B1AD0234B5B6F1846A0
:1032E800FDF742FF204B5B6F002118460AF01AFDDC
:1032F8000223FB711C4B5B6FFA79114618460AF0E2
:103308004BFE194B5B6FFA79114618460AF0F4FE2A
:10331800154B93F83C30002B03D1134B012283F853
:103328003C20114B93F82430002B03D10E4B012283
:1033380083F824200C4B1B7E002B02D10A4B012260
:103348001A76094B1B7B002B02D1074B01221A73FB
:10335800054B1B78002B02D1034B01221A7000BFCA
:103368000837BD4680BD00BF28020020B8040020F1
:10337800A80400209804002080B500AF0F4B1B78EC
:103388005A1CD1B20D4A1170002B09D00C4B0122E6
:103398001A600A4B1B78013BDAB2084B1A700BE033
:1033A80062B600BFFEF704F972B600BF034B1B7884
:1033B800013BDAB2014B1A7080BD00BF8C060020B9
:1033C8008806002080B586B000AF786039605B4B16
:1033D8007B615B4B3B610023FB735A4B00221A70E5
:1033E800594B00221A7001DF09F030FE08F0F2FA9A
:1033F80006F086F908F098FD08F0B0FD08F042FBE9
:1034080008F0E4FB08F06CFC08F0F6FC4F4B1B6876
:1034180000221A6000210020FDF7C6FB0346FB735B
:1034280097F90F30002B02D097F90F3081E0FFF7A2
:10343800F3FC72B600BF62B600BF444B1B685A6803
:10344800424B1B6803F5A07319461046FDF7BCFBF9
:103458000346FB7397F90F30002B0DD14FF0FF3067
:10346800FDF746FCFDF758FD0346002B04D0374B0B
:103478001B68012283F8492172B600BF97ED050A3F
:1034880006F030FAFDF754FD0346002B0CD1FDF78A
:1034980043FD0346002B07D12C4B1B6893F8493199
:1034A800002B01D1012300E00023DAB2264B1A7069
:1034B80062B600BF62B600BF2FE0FDF7FDFC034611
:1034C800FB73FDF735FD0346002B0AD1FDF724FDFC
:1034D8000346002B05D11D4B1B6893F84931002B7F
:1034E80001D0012300E00023DAB2164B1A70154B05
:1034F8001B78DBB2002B0CBF01230023DBB21A467A
:10350800114B1A700F4B1B78DBB2002B05D0104BF8
:103518001B680F4A23F0010313600B4B1B78DBB2C7
:10352800002BCAD1FFF758FEFDF7D6FC72B600BFD4
:10353800002318461837BD4680BD00BF0AD7233C74
:1035480000002A438D0600208E060020BC120108C8
:1035580010E000E00FB480B400AF00BFBD465DF8D6
:10356800047B04B0704780B485B000AFF860B960E0
:103578007A60FB68BA681A60FB6804337A681A6074
:1035880000BF1437BD465DF8047B7047000000009B
:10359800F0B58BB000AF87ED020B0346FB80FB88CC
:1035A800012B77D14FF00002414BD7E90201FCF71C
:1035B800CBFF02460B46C7E906239FED391B97ED63
:1035C800060B0AF0C3FE53EC102B10461946FDF704
:1035D8006BFA03467B6100237B6233A3D3E90023A4
:1035E800D7E90601FDF740FA0346002B0ED02EA3BB
:1035F800D3E90023D7E90601FDF7D0F802460B46C8
:1036080010461946FDF750FA03467B627A6A7969D3
:103618002848FFF7A8FF284BD3E900014FF0000224
:10362800264BFDF7F9F90346002B2ED1224BD3E99F
:1036380000014FF000024FF04043FDF7EDF903465B
:10364800002B22D11C4BD3E90001D7E90223FCF758
:10365800C3FD02460B4614461D464FF00002184BA8
:10366800D7E90201FCF770FF02460B4601210E461E
:1036780020462946FDF7DAF90346002B01D100233D
:103688001E46F3B21A460F4B1A700F49D7E90223A8
:10369800C1E9002300BF2C37BD46F0BDAFF3008061
:1036A800000000000000F0410000E0FFFFFFEF41D4
:1036B80000408F40C0060020080000200000F0BF36
:1036C8000000B03CA8060020C806002080B584B0E1
:1036D80000AF0023BB6000237B600023FB732349FA
:1036E8004FF000024FF00003C1E9002320494FF0DA
:1036F80000024FF00003C1E900233A1D07F1080357
:103708001146184605F0B6FFBB687A681146184698
:1037180004F0D2F80346FB7397F90F30002B05D05D
:103728001448FFF717FF97F90F301AE03A1D07F111
:1037380008031146184605F0B4FFBB687A681146BD
:10374800184600F053FF0346FB7397F90F30002B20
:1037580005D097F90F3019460748FFF7FBFE97F990
:103768000F3018461037BD4680BD00BFB006002098
:10377800B8060020F0EC000818ED000880B584B009
:1037880000AF0346FB710023FB730023BB730020CB
:1037980005F09EFF00237B7304F05CFA0346FB737D
:1037A80097F90F30002B0DD097F90F3013F1020F56
:1037B80008D097F90F3019463C48FFF7CBFE012394
:1037C800BB730BE07B7B002B04D197F90F3013F10F
:1037D800020F01D0012300E000237B73BB7B002B89
:1037E80021D100F035FF0346FB7397F90F30002B0A
:1037F8000DD097F90F3013F1020F08D097F90F3059
:1038080019462B48FFF7A6FE0123BB730BE07B7B11
:10381800002B04D197F90F3013F1020F01D00123C7
:1038280000E000237B73BB7B002B21D104F09CF9C3
:103838000346FB7397F90F30002B0DD097F90F3023
:1038480013F1020F08D097F90F3019461948FFF7FE
:1038580081FE0123BB730BE07B7B002B04D197F91E
:103868000F3013F1020F01D0012300E000237B7316
:10387800FB79002B0DD0002005F02AFFBB7B002B25
:1038880002D17B7B002B01D1012300E00023BB7315
:1038980001E00123BB73BB7B002B3FF47BAF97F99F
:1038A8000F3018461037BD4680BD00BF40ED0008F8
:1038B80078ED0008A8ED000880B582B000AF0023BD
:1038C800BB70394B1B78DBB2002B02D0002000F014
:1038D800DDFF00F0AFFF0346FB7000237B600EE0C6
:1038E8000A2005F0F5FE7B6803F51C5310337B6056
:1038F8000120FFF743FF00F09DFF0346FB707B6844
:103908002A4A934202D2FB78002BE9D100F09EFFAD
:103918000346BB7097F90230002B05D097F90230A7
:1039280019462348FFF716FE04F00EFB0346BB704A
:1039380097F90230002B05D097F9023019461D4837
:10394800FFF708FE1C4B00221A701C4B00221A704D
:103958001B4B00221A601B4B00221A601A4B0022D4
:103968001A601A4B00221A60194B00221A60194972
:103978004FF000024FF04043C1E900230A4B0022F8
:103988001A700822002114480AF0FAFF13494FF070
:1039980000024FF00003C1E9002397F902301846EE
:1039A8000837BD4680BD00BFA806002000879303E6
:1039B800E0ED0008FCED00088F06002090060020CE
:1039C80094060020980600209C060020A0060020EF
:1039D800A406002008000020C0060020C806002019
:1039E80080B586B000AF614B1B687B617B69002B9B
:1039F80000F0B8805E4B1B78DBB2002B04D15B4B28
:103A08001B68002B00F0AE805A4B1B78DBB2022BF0
:103A180040F0A880584B1B78002B40F0A3807B69AE
:103A2800D3E90023C7E90223544B1B78002B00F08D
:103A38008A80534B1B78DBB2002B04D0504B1B7889
:103A4800DBB2022B01D1012300E00023FB714C4BB8
:103A58001B78DBB2012B04D0494B1B78DBB2022B5D
:103A680001D1012300E00023BB71FB79002B33D087
:103A7800444BD3E90023D7E90201FCF7EBFF0346E7
:103A8800002B0AD0404BD3E900013E4BD3E9002379
:103A9800FCF7CCFF0346002B14D13A4BD3E90023A3
:103AA800D7E90201FCF7E0FF0346002B14D0364BA0
:103AB800D3E90001334BD3E90023FCF7ADFF0346FC
:103AC800002B09D0314B1B68002B02D1304B01224F
:103AD8001A70294B01221A70BB79002B33D0294B5D
:103AE800D3E90023D7E90201FCF7A0FF0346002B26
:103AF8000AD0254BD3E90001224BD3E90023FCF778
:103B0800A9FF0346002B14D11E4BD3E90023D7E9A4
:103B18000201FCF781FF0346002B14D01A4BD3E9AE
:103B28000001184BD3E90023FCF79EFF0346002B46
:103B380009D0164B1B68002B02D1154B01221A70B5
:103B48000D4B01221A700C4B1B78002B0CBF012364
:103B58000023DBB21A46094B1A700B49D7E9022336
:103B6800C1E9002300BF1837BD4680BDD406002038
:103B7800D8060020F40600200307002000070020D4
:103B8800F0060020E0060020F8060020EC060020E1
:103B98000207002080B582B000AF0023FB719E4B66
:103BA8001B78DBB2002B18D19C4B00221A709C4B5F
:103BB80000221A709B4B1B78DBB2002B2DD0964B42
:103BC80002221A70974B00221A70974B1B78DBB2AF
:103BD800002B22D10123FB711FE0924B00221A70A7
:103BE8008E4B1B78DBB2002B09D0904B00221A7049
:103BF800894B00221A70894B00221A700DE08A4BFB
:103C08001B78DBB2002B02D10123FB7105E0844B4A
:103C18001B78FB71824B00221A707F4B1B78DBB23A
:103C2800042B00F2D78001A252F823F0493C000887
:103C3800833D0008633C0008373D0008C13C00088C
:103C4800784B1B78DBB2002B00F0D880724B022235
:103C58001A70744B00221A70D0E0FB79002B00F028
:103C6800CF80734B1B68002B0DDD6F4B1B78DBB2CD
:103C7800012B08D16E4B1B681A466E4B1A60664BB7
:103C880003221A70BCE06C4B1B68002B0AD0674BF0
:103C980001221A70684B1B68664A13605E4B042247
:103CA8001A70ADE06548FFF755FC604B00221A70AA
:103CB800594B00221A70A3E05E4B1B68002B04D0FE
:103CC8005C4B1B68013B5B4A13605A4B1B68002B1B
:103CD80040F098805A4B1B78DBB2012B06D1534B2E
:103CE80000221A704C4B00221A708BE0554B1B684F
:103CF800002B0AD04D4B00221A70524B1B684D4ABC
:103D08001360454B01221A707CE0FB79002B07D029
:103D1800494B1B68474A13603F4B04221A7071E0F5
:103D2800424B00221A703C4B02221A706AE0414B47
:103D38001B68002B04D03F4B1B68013B3D4A1360B6
:103D48003C4B1B68002B5FD13B4B1B68002B0AD0F8
:103D5800364B01221A70384B1B68364A13602E4BBB
:103D680004221A7050E03548FFF7F4FB2F4B00226D
:103D78001A70294B00221A7046E02E4B1B68002B44
:103D880004D02C4B1B68013B2A4A1360294B1B6843
:103D9800002B3BD1FB79002B18D0274B1B68002B3D
:103DA8000AD0224B01221A70234B1B68214A136048
:103DB800194B04221A7029E02048FFF7CBFB1B4B54
:103DC80000221A70144B00221A701FE0124B0222B4
:103DD8001A701BE0104B1B78DBB219461A48FFF724
:103DE800B9FB124B00221A700D4B00221A700B4BB4
:103DF80000221A70084B00221A7008E000BF06E083
:103E080000BF04E000BF02E000BF00E000BF00BF49
:103E18000837BD4680BD00BFF4060020F10600202B
:103E28000307002014000020F206002002070020EB
:103E3800EC060020040700201000002020EE0008F7
:103E4800F3060020E806002048EE000880B400AF22
:103E580010494FF000024FF00003C1E900230E4B58
:103E680000221A700D4B1B78DAB20D4B1A700D4BED
:103E780000221A700C4B00221A700C4B00221A6098
:103E88000B4B00221A7000231846BD465DF8047BD0
:103E9800704700BFF806002000070020F206002047
:103EA8000107002002070020030700200407002064
:103EB800F406002080B584B000AF0346FB80FB8881
:103EC800012B3FD1314B1B78DAB2314B1B789A4228
:103ED80014BF01230023DBB2FB732C4B1B78DAB22F
:103EE8002B4B1A70FB7B002B0BD02A4B00221A702D
:103EF800294B00221A70294B00221A60284B0022F5
:103F08001A70224B1B78DBB2012B1BD1244B1B7878
:103F1800DBB2002B04D1234B1B78DBB2002B08D17A
:103F28001F4B1B78DBB2012B0CD11C4B1B68012BE0
:103F380008D11A4B00221A601A4B00221A70184B2B
:103F480002221A70114B1B78DBB2012B07D1164BDA
:103F58001B889BB2FA889A4201D1FFF741FDFB8882
:103F6800012B05D1FFF716FE104B00221A7006E050
:103F78000E4B1B78002B02D00D4B1B7801E0054B34
:103F88001B7818461037BD4680BD00BFF2060020DA
:103F98000107002002070020030700200407002073
:103FA800F406002014000020D00600200907002095
:103FB8000807002080B400AF26494FF000024FF0F8
:103FC8000003C1E90023244B00221A70234B00226E
:103FD8001A70234B00221A70224B00221A80224B9F
:103FE80000221A70214B00221A70214B00221A60FD
:103FF800204B00221A70204B00221A701F4B0022FF
:104008001A601F4B00221A701E494FF000024FF031
:104018000003C1E900231C4B4FF47A721A601B4B52
:1040280000221A601A4B00221A601A4B00221A70DA
:10403800194B01221A70194B00221A70184B0022D2
:104048001A70184B00221A7000231846BD465DF8F6
:10405800047B7047F806002000070020F4060020C3
:1040680001070020D00600200207002003070020D7
:10407800040700200807002009070020D4060020B4
:10408800D8060020E006002010000020E8060020E6
:10409800EC060020F006002014000020F1060020A5
:1040A800F2060020F306002080B400AF174B1B78FF
:1040B800DBB2002B25D1164B1B78DBB2002B0BD0C3
:1040C800144B1B78DBB2002B06D1134B01221A705C
:1040D800124B01221A7014E00E4B1B78DBB2002B36
:1040E8000BD00B4B1B78DBB2002B06D10A4B0022FE
:1040F8001A700A4B01221A7003E0084B00221A704A
:10410800FFE700BFBD465DF8047B7047F20600205C
:1041180014000020F10600200807002009070020ED
:1041280080B586B000AFF860B9607A603B60002364
:10413800FB7503F0FDFE3861FB681B68184604F048
:104148000DF90021386803F06BFE0246BB681A605F
:1041580003F056FE02467B681A60BB681B68002B9A
:104168000FD0BB681B681946386904F0FDFB02468E
:10417800FB681A60FB681B68002B04D1F623FB75EB
:1041880001E0F823FB7597F9173018461837BD4634
:1041980080BD000080B584B000AFF860B9607A6077
:1041A800FA68BB6813441B7819460848FFF7D2F928
:1041B800FB68002B02D0F86804F0D0F87B68002276
:1041C8001A60002318461037BD4680BD6CEE000803
:1041D80080B584B000AFF860B9607A60FA68BB68EF
:1041E80013441B7819460648FFF7B4F97B68022286
:1041F8001A604FF0FF3318461037BD4680BD00BF28
:10420800C8EE000880B485B000AF03460A46FB71CB
:104218001346BB710523FB73FB79F02B02D90023EE
:10422800FB7322E0FB79E32B05D9FB79F02B02D84D
:104238000123FB7319E0FB79D22B02D9FB79E22B1E
:1042480008D9FB79C02B08D1BB79002B05D0BB79E5
:10425800022B02D80223FB7307E0FB79C72B04D992
:10426800FB79D22B01D80323FB73FB7B1846143749
:10427800BD465DF8047B704780B58CB000AFF86030
:10428800B9607A603B60FB68BB62BB6A1B7887F8E1
:104298002730002387F82F3097F82730C02B06D116
:1042A800BB68012B03D9BB6A5B7887F82F30364B84
:1042B8001B78002B3ED097F82F2097F8273011460F
:1042C8001846FFF79FFF0346FB76002387F82E303A
:1042D800FB7E052B23D0FB7E2C4A52F823307B61D2
:1042E80000233B617B69002B19D097F827207B6955
:1042F8001046984738613B69002B14BF01230023FF
:10430800DBB287F82E3097F82E30002B07D03B69A8
:104318005A687B681A603B699A683B681A6097F824
:104328002E30002B2CD17B68194A1A603B68194A39
:104338001A6025E097F82730FF2B1BD1134B1B6819
:104348003B627B6800221A603B6800221A603B6A65
:10435800002B15D03B6AFF209847F861FB69002BBA
:104368000ED0FB695A687B681A60FB699A683B68DB
:104378001A6005E07B68084A1A603B6800221A60E8
:1043880000BF3037BD4680BD0B0700201007002056
:10439800D9410008694400089D41000880B483B0F1
:1043A80000AF0346FB71044AFB79137000BF0C375A
:1043B800BD465DF8047B70470B07002080B400AF52
:1043C800034B1B781846BD465DF8047B704700BF59
:1043D8000C07002080B483B000AF0346FB71064B86
:1043E8001A78FB791343DAB2034B1A7000BF0C3703
:1043F800BD465DF8047B70470C07002080B483B08D
:1044080000AF0346FB7197F90730DB435AB2074BFD
:104418001B785BB213405BB2DAB2044B1A7000BF70
:104428000C37BD465DF8047B704700BF0C070020C1
:1044380080B400AF034B1B781846BD465DF8047B7B
:10444800704700BF0D07002080B400AF034B1B88E6
:104458001846BD465DF8047B704700BF0E07002074
:1044680080B586B000AF0346B9607A60FB7397F9F0
:104478000F30002B05D1BB683B613B69FF221A70E6
:1044880076E0BB687B617B69FE221A7097F90F3072
:1044980010330F2B62D801A252F823F05D450008B3
:1044A800554500084D450008454500083D450008AC
:1044B80035450008254500082D4500081D4500081C
:1044C800154500080D45000805450008ED4400089D
:1044D800E5440008F5440008FD4400087B693022E3
:1044E8005A7045E07B6929225A7041E07B69222293
:1044F8005A703DE07B6920225A7039E07B690022BE
:104508005A7035E07B6923225A7031E07B69212299
:104518005A702DE07B6911225A7029E07B692722A5
:104528005A7025E07B692A225A7021E07B691022A3
:104538005A701DE07B6924225A7019E07B69282291
:104548005A7015E07B6926225A7011E07B69312286
:104558005A700DE07B6933225A7009E097F90F30E1
:1045680019460548FEF7F6FF7B6920225A70FFE7D7
:1045780000BF1837BD4680BDF8EE000880B487B08C
:1045880000AF0346B9607A60FB7300237B61BB68A8
:10459800002B23D000233B6100233B6117E03A69DD
:1045A80013465B0013449B001A46BB6813441B78F0
:1045B800FA7B9A4208D13A6913465B0013449B0080
:1045C8001A46BB6813447B613B6901333B613A6916
:1045D8007B689A4202D27B69002BE0D07B6918463F
:1045E8001C37BD465DF8047B7047000080B582B07B
:1045F80000AF78603960134B1B78002B05D0124848
:10460800FEF7A8FF6FF00B0318E000F07BFC00F04A
:1046180085FC03460D4A136002F052FA02F06CFA68
:1046280003460A4A936003F045F803F04DF8034641
:10463800064A5360034B01221A70002318460837B4
:10464800BD4680BD0A0700203CEF00081007002087
:1046580080B58CB002AF002387F82730002387F895
:1046680026300023FB610023BB6100237B6100230C
:104678003B610023FB6000233B620023BB600023F7
:104688007B60554B1B78002B05D15448FEF762FF21
:104698006FF008039BE007F1140007F1180207F117
:1046A8001C0107F1100300930346002003F012FBDE
:1046B800034687F8273097F92730002B09D097F958
:1046C800273013F1040F04D097F9273013F1050FA1
:1046D80071D1FB69002B05D07A693B691A44BB6923
:1046E8009A4203D9F82387F8273067E0FA697B698B
:1046F80013443B6239693B1D07F10802386AFFF72A
:10470800BBFDBB68002B09D13B6A1B7819463448AE
:10471800FEF720FFF42387F827304FE0BB68F869DD
:10472800796907F10C029847034687F826307B68B9
:10473800002B3DD0FB68002B3AD0002387F82730A8
:104748003A69FB689A420BD2FB6807F1140207F139
:10475800180107F11C00FFF7E3FC034687F8273030
:104768003B691A460021386A0AF00AF997F9273096
:10477800002B1DD1FA697B6913443B627B68FA6898
:1047880097F92600396A9847F969B8697B69FA6820
:104798000192009303460A464FF6FF71012003F089
:1047A80041F9034687F8273097F92730002B04D1C1
:1047B80097F927300BE000BF00E000BFFB69002B32
:1047C80003D0FB69184603F0C9FD97F9273018464E
:1047D8002837BD4680BD00BF0A0700206CEF0008DF
:1047E80094EF000880B584B000AF0346FB80002337
:1047F800FB730023BB600D4B1B78002B05D10C48C5
:10480800FEF7A8FE6FF008030CE004F0C9FFB860DB
:10481800FB880022B968184602F06CFB0346FB735C
:1048280097F90F3018461037BD4680BD0A0700209B
:10483800C4EF000880B400AF034B1B781846BD4690
:104848005DF8047B704700BF0B07002080B500AF00
:104858000B4B1B78002B02D10A48FEF77BFE02F0B7
:104868004FFF02F0F1FD00F075FB10220021064811
:104878000AF086F8024B00221A700023184680BD01
:104888000A070020BCF000081007002080B584B09B
:1048980000AF7860786802F0B1FB0346FB7397F9C4
:1048A8000F3018461037BD4680BD80B584B000AFC4
:1048B8000346FB800123FB73FA7BFB880021184623
:1048C80002F018FB0346BB7397F90E3018461037F1
:1048D800BD4680BD80B584B000AF0346FB7101239F
:1048E800FB6003F0DCFAB860FA79B968FB68B1FBE1
:1048F800F3F39A4234BF01230023DBB21846103782
:10490800BD4680BD80B584B000AF78600B46FB70B3
:1049180000F02AFBF860F9680648FEF71BFE064B14
:104928001B781A46F96878680AF05CF800BF1037F7
:10493800BD4680BDE4F000082807002080B588B097
:1049480000AFF860B9607A600023FB77FA68BB684B
:104958001344BB61BB697B610023FB7402F0A6FCB6
:104968000346FB74FB7C002B08D11A48FEF7F2FDC6
:104978007B6802221A606FF00A0327E07B695B7884
:10498800002B03D07B695B78012B01D1012300E068
:104998000023FB74FB7C002B0BD17B695B781946E9
:1049A8000D48FEF7D7FD7B6802221A606FF00103FD
:1049B8000CE00A48FEF7CEFD0120FFF7EFFC0023CC
:1049C800FB777B6808221A6097F91F301846203752
:1049D800BD4680BDFCF0000848F100086CF10008F5
:1049E80080B586B000AF0346B9607A60FB7397F96B
:1049F8000F30002B47D1BB687B6108220021786902
:104A080009F0BEFF7B69FF221A7005227B695A7084
:104A180000227B699A7003F042FA0346DAB27B6996
:104A2800DA7003F035FA03469AB27B699A807B699B
:104A380001229A717B690122DA717B695B781946D8
:104A48001648FEF787FD7B699B7819461448FEF7E0
:104A580081FD7B69DB7819461248FEF77BFD7B698F
:104A68009B889BB219461048FEF774FD7B699B79B9
:104A780019460E48FEF76EFD7B69DB7919460C482E
:104A8800FEF768FD06E097F90F307A68B9681846AE
:104A9800FFF7E6FC00BF1837BD4680BD94F100085B
:104AA800B0F10008CCF10008E8F1000804F20008B1
:104AB80020F2000880B586B000AFF860B9607A606F
:104AC8000123FB7502F0F2FB0346FB75FB7D002B0F
:104AD80008D10B48FEF73EFD7B6802221A606FF092
:104AE8000A0309E00748FEF735FD0020FFF756FCEA
:104AF8007B6801221A60002318461837BD4680BD1E
:104B08003CF200088CF2000880B584B000AFF86071
:104B1800B9607A600548FEF71DFD7B6806221A60B9
:104B2800002318461037BD4680BD00BFBCF2000800
:104B380080B586B000AF0346B9607A60FB73BB6886
:104B48007B6106220021786909F01AFF7B69FF2240
:104B58001A70FFF733FC03461A467B695A70FFF751
:104B680067FC03461A467B699A70FFF76DFC03469B
:104B78001A467B699A807B695B7819460948FEF773
:104B8800E9FC7B699B7819460748FEF7E3FC7B69DB
:104B98009B889BB219460548FEF7DCFC00BF183716
:104BA800BD4680BDC8F20008ECF2000810F300080A
:104BB80080B586B000AFF860B9607A600023FB75F5
:104BC8000B48FEF7C7FC02F05BFB0346FB75FB7D59
:104BD800002B03D003F08CF902F061FB7B68022202
:104BE8001A606FF0040318461837BD4680BD00BF31
:104BF80034F3000880B588B000AFF860B9607A6017
:104C08000023FB77FA68BB681344BB61BB697B610F
:104C18000023FB747B695A687B69DB781946104668
:104C280000F0AEF90346FB74FB7C002B08D10D485D
:104C3800FEF790FC7B6802221A606FF00B030CE011
:104C48007B6959687B69DB781A460748FEF782FC5E
:104C58007B6801221A6097F91F3018462037BD4635
:104C680080BD00BF3CF3000858F3000880B58AB047
:104C780000AFF860B9607A60002387F82730FA68D7
:104C8800BB6813443B623B6AFB610023FB7600F080
:104C98006BF97861FB695B781846FFF71BFE0346E2
:104CA800FB76FB7E002B0BD1FB695B78194612481B
:104CB800FEF750FC7B6802221A606FF0010316E0D1
:104CC8007B69002B08D10D48FEF744FC7B68022263
:104CD8001A606FF00B030AE0FB695A78084B1A70E8
:104CE800074B1B785A1C7B681A6097F927301846BF
:104CF8002837BD4680BD00BF8CF30008BCF3000810
:104D08002807002080B588B000AF0346B9607A60F4
:104D1800FB7397F90F30002B30D100F025F9F861BB
:104D2800BB68BB6101220021B86909F029FEBB6993
:104D3800FF221A70FB69002B1CD0164B1B7801331D
:104D48007A689A4216D1BB6801337B610023FB74F1
:104D58001148FEF7FFFBFB7C19467869FFF7D2FD87
:104D68000C4B1B78184600F029F90A4B00221A70E0
:104D780000BF0AE00948FEF7EDFB06E097F90F309F
:104D88007A68B9681846FFF76BFB00BF2037BD4645
:104D980080BD00BF28070020D8F30008E4F300080E
:104DA80080B588B000AFF860B9607A600023FB77FF
:104DB800FA68BB681344BB61BB697B610023FB7461
:104DC8007B695B781846FFF785FD0346FB74FB7C1F
:104DD800002B0BD17B695B7819461748FEF7BAFBA5
:104DE8007B6802221A606FF0010320E07B695A6831
:104DF8007B69DB781946104600F0C2F80346FB745D
:104E0800FB7C002B08D10D48FEF7A4FB7B6802222F
:104E18001A606FF00B030AE07B695A78084B1A7026
:104E2800074B1B785A1C7B681A6097F91F30184685
:104E38002037BD4680BD00BF04F4000838F40008E0
:104E48002807002080B588B000AF0346B9607A60B3
:104E5800FB7397F90F30002B30D100F085F8F8611B
:104E6800BB68BB6101220021B86909F089FDBB69F3
:104E7800FF221A70FB69002B1CD0164B1B780133DC
:104E88007A689A4216D1BB6801337B610023FB74B0
:104E98001148FEF75FFBFB7C19467869FFF732FD86
:104EA8000C4B1B78184600F089F80A4B00221A7040
:104EB80000BF0AE00948FEF74DFB06E097F90F30FE
:104EC8007A68B9681846FFF7CBFA00BF2037BD46A5
:104ED80080BD00BF2807002058F4000868F40008C7
:104EE80080B582B000AF0346FB71FB790722044905
:104EF8001846FFF743FB034618460837BD4680BDF2
:104F0800C412010880B500AF034800F013F800F0A0
:104F180069F800BF80BD00BFE94E000880B400AF4B
:104F2800034B1B681846BD465DF8047B704700BFFD
:104F38002C07002080B483B000AF7860044A7B68F7
:104F4800136000BF0C37BD465DF8047B704700BF97
:104F58002C07002080B500AF00F04BF80020FFF7C9
:104F6800E9FF00BF80BD000080B400AF034B1B68A1
:104F78001846BD465DF8047B704700BF2007002037
:104F880080B483B000AF78600B46FB70FB78002BD1
:104F980004D17B68002B01D1002306E0064A7B6818
:104FA8001360054AFB781371012318460C37BD4678
:104FB8005DF8047B704700BF2007002080B483B0F1
:104FC80000AF0346FB71064B1A68FB791344044A89
:104FD800136000BF0C37BD465DF8047B704700BF07
:104FE8002007002080B400AF00BFBD465DF8047BF9
:104FF800704780B400AF00BFBD465DF8047B7047C2
:1050080080B584B000AF0346FB800023FB7305F036
:10501800E8FE03460B4A13600B4B1B68002B0CBFC2
:1050280001230023DBB2FB73FB7B002B04D1054B70
:105038001B68184605F0E6FEFB7B18461037BD4690
:1050480080BD00BF3C0700203807002080B582B033
:1050580000AF0346FB80044B1B68184605F0D2FEE0
:1050680000BF0837BD4680BD3C07002080B582B030
:1050780000AF0346FB8005F0B4FE0346074A136001
:10508800074B1B680133064A1360044B1B6818461C
:1050980005F0B8FE00BF0837BD4680BD3C070020BC
:1050A8003807002080B582B000AF0346FB8005F0CA
:1050B80098FE0346074A1360074B1B68013B064AE4
:1050C8001360044B1B68184605F09CFE00BF0837A8
:1050D800BD4680BD3C0700203807002080B483B05F
:1050E80000AF0346FB80104B1968FA8813465B0033
:1050F8001344DB000B445B79022B0AD00A4B196876
:10510800FA8813465B001344DB000B445B79032BDE
:1051180001D1012300E00023DBB218460C37BD465D
:105128005DF8047B704700BF3007002080B582B06F
:1051380000AF0023FB710023BB800023BB8008E085
:10514800BB881846FFF7CAFF0346FB71BB880133CB
:10515800BB80094B9B88BA889A4202D2FB79002B04
:10516800EED0FB79002B0CBF01230023DBB21846DD
:105178000837BD4680BD00BF3007002080B485B029
:1051880000AF0346FB800B467B7113463B71284BEF
:105198001B68002B42D0264B9B88FA889A423DD246
:1051A800234B1968FA8813465B001344DB000B4451
:1051B8001B68002B32D01E4B1968FA8813465B0017
:1051C8001344DB000B441B797A799A4226D2184B98
:1051D8001968FA8813465B001344DB000B4419680E
:1051E8007A791346DB009B1A9B000B441B68002B43
:1051F80014D00F4B1968FA8813465B001344DB0080
:105208000B4419687A791346DB009B1A9B000B4400
:105218001B793A799A4201D2012300E00023FB73FB
:10522800FB7B18461437BD465DF8047B704700BF0A
:105238003007002080B485B000AF03463A60FB71A8
:105248000B46BB710023FB73BB79BB81FB79FF2B3A
:1052580004D1BB89FF2B01D80123FB73FB7B1846C4
:105268001437BD465DF8047B704780B483B000AF47
:105278000346FB71FB7923F01003002B0CBF0123BD
:105288000023DBB218460C37BD465DF8047B704737
:1052980080B485B000AF0346FB710023FB73FB7934
:1052A800002B05D0FB79012B02D0FB79022B01D111
:1052B8000123FB73FB7B18461437BD465DF8047B5E
:1052C800704780B485B000AF0346FB710023FB73C1
:1052D800FB79002B05D0FB79012B02D0FB79022B3F
:1052E80001D10123FB73FB7B18461437BD465DF8DB
:1052F800047B704780B400AF01231846BD465DF8B3
:10530800047B704780B485B000AF0346FB80164B22
:105318001968FA8813465B001344DB000B441B7BB7
:10532800022B0ED1104B1968FA8813465B00134400
:10533800DB000B44DA880D4B1B889A4201D001230D
:1053480000E00023FB73FB7B002B04D0FB88002BC1
:1053580001D1012300E00023FB73FB7B18461437BF
:10536800BD465DF8047B7047300700202000002010
:1053780080B485B000AF78600B46FB707B68196815
:10538800FA781346DB009B1A9B000B44BB60BB6892
:105398009B687A68D28902FB03F30133FB60FB78D0
:1053A800002B08D17B681B7A03F01003002B02D076
:1053B800FB680433FB60FB6818461437BD465DF88C
:1053C800047B704780B586B000AF78600023BB745B
:1053D80000237B610023FB740023FB7415E0FB7C36
:1053E80019467868FFF7C4FFF8600023BB60012105
:1053F800F86802F015FDB860BA687B699A4201D96D
:10540800BB687B61FB7C0133FB747B681B79FA7C8E
:105418009A42E4D37B681B791A4613465B009918B5
:105428007B6814331A46786903F050F80346BB7456
:1054380097F91230002B03D07B684FF0FF325A6186
:1054480097F9123018461837BD4680BD80B582B02E
:1054580000AF78607B685B69B3F1FF3F04D07B687D
:105468005B69184603F044F97B684FF0FF325A61D4
:1054780000BF0837BD4680BD80B58AB000AFF86070
:10548800B9607A60002387F82730FA68BB6813444C
:105498003B623B6AFB61FB699A78DB781B0213432A
:1054A8007B83FB691B797B76FB695B793B76002301
:1054B800FB753A7E797E7B8B1846FFF75FFE0346C5
:1054C800FB75FB7D002B0BD1798B7A7E3B7E1D48CB
:1054D800FEF740F87B6802221A606FF001032CE0A7
:1054E8007B8B1846FFF7FAFD0346002B0CBF012300
:1054F8000023DBB2FB75FB7D002B0AD17B8B1946A1
:105508001148FEF727F87B6802221A606FF007033C
:1055180013E0798B7A7E3B7E0C48FEF71BF80C4A29
:105528007B8B13800A4A7B7E9370094A3B7ED3703B
:105538007B6801221A6097F9273018462837BD463C
:1055480080BD00BF90F40008D4F4000804F50008FA
:105558001C000020F0B58FB004AFF860B9607A6025
:10556800002387F82730FA68BB6813443B623B6A1C
:10557800FB61584B1B887B83564B9B787B76554B3E
:10558800DB783B7600237B610023FB743A7E797ECF
:105598007B8B1846FFF7F2FD0346FB74FB7C002B60
:1055A8000BD1798B7A7E3B7E4B48FDF7D3FF7B6826
:1055B80002221A606FF0050387E07B8B1846FFF71D
:1055C8008DFD0346002B0CBF01230023DBB2FB74C7
:1055D800FB7C002B0AD17B8B19464048FDF7BAFFAC
:1055E8007B6802221A606FF007036EE0FB69587847
:1055F800FB699978FB695B681A46FFF71BFE03464F
:10560800FB74FB7C002B1BD1798B7A7E387EFB697F
:105618005B781C46FB699B781D46FB69DB781E4658
:10562800FB695B68039302960195009403462C4836
:10563800FDF790FF7B6802221A606FF0010344E0D7
:10564800798B7A7E387EFB695B781C46FB699B7890
:105658001D46FB69DB781E46FB695B68039302966F
:105668000195009403461F48FDF774FF1E4B196807
:105678007A8B13465B001344DB000B4419687A7E6F
:105688001346DB009B1A9B000B441A683B7EDB0029
:1056980013447B61FB695A787B691A70FB699A78B5
:1056A8007B695A70FB69DA787B699A70FB695A687A
:1056B8007B695A60074BDB780133DAB2054BDA7045
:1056C8007B6801221A6097F9273018462C37BD46A7
:1056D800F0BD00BF1C00002054F50008B0F500081C
:1056E800E0F5000858F600083007002090B58DB0A6
:1056F80002AFF860B9607A60002387F82730FA684B
:10570800BB6813443B623B6AFB610023BB61002317
:10571800FB75614B1B68002B08D0FB695B889AB24C
:105728005D4B9B889A4201D2012300E00023FB7560
:10573800FB7D002B0CD1FB695B889BB2194657484F
:10574800FDF708FF7B6802221A606FF001039FE0F3
:10575800514B1A68FB695B889BB219460B465B0084
:105768000B44DB001344BB61FB695B889BB21846A2
:10577800FFF7B4FC0346002B0CBF01230023DBB268
:10578800FB75FB7D002B0CD1FB695B889BB219462E
:105798004348FDF7DFFE7B6802221A606FF00703BB
:1057A80076E0FB699B889BB27F2B94BF0123002383
:1057B800DBB2FB75FB7D002B0CD1FB699B889BB290
:1057C80019463848FDF7C6FE7B6802221A606FF05A
:1057D80001035DE0FB69DB79002B0CBF012300238B
:1057E800DBB2FB75FB7D002B08D12F48FDF7B2FE1D
:1057F8007B6802221A606FF0010349E0FB695B785D
:105808001846FFF732FD0346FB75FB7D002B0BD1D5
:10581800FB695B7819462548FDF79CFE7B680222E8
:105828001A606FF0090333E0FB695B889BB2194685
:10583800FB695B781846FB699B889BB21C46FB6931
:105848009B791A46FB69DB7901930092234602464D
:105858001748FDF77FFEFB695A78BB691A72FB6926
:105868009B889AB2BB69DA80FB699A79BB695A72DC
:10587800FB69DA79BB699A72BB695B7A012B02D83A
:10588800BB6901225A727B6801221A6097F9273096
:1058980018462C37BD4690BD30070020C8F60008D2
:1058A800F8F600082CF700085CF7000898F70008DD
:1058B800CCF7000890B58FB000AFF860B9607A6097
:1058C800002387F82630FA68BB6813443B623B6ABA
:1058D800FB610023BB61FB695B889BB27B61002392
:1058E80087F837300023FB748A4B1B68002B07D0DE
:1058F800884B9B881A467B69934201DA012300E0B2
:10590800002387F8373097F83730002B09D17969A9
:105918008148FDF71FFE7B6802221A606FF00103C1
:10592800B2E17E4A7B6913607A4B19687A6913463B
:105938005B001344DB000B44BB61FB695B781846D2
:10594800FFF7A6FC034687F8373097F83730002B67
:105958000BD1FB695B7819467148FDF7FBFD7B6845
:1059680002221A606FF009038EE1FFF7C3FC0346B9
:10597800002B5AD0BB695B79002B56D1BB691B7AC7
:1059880003F00203002B21D0BB691B68002B09D050
:10599800604BDB791A46BB691B791344802B01DC09
:1059A800012300E0002387F8373097F83730002BC1
:1059B8002DD0584BDA79BB69DA72564BDA79BB6964
:1059C8001B791344DAB2534BDA7120E0BB691B68C8
:1059D800002B09D04F4B9B791A46BB691B7913449E
:1059E800FC2B01DC012300E0002387F8373097F80F
:1059F8003730002B0BD0474B9A79BB69DA72454B8D
:105A08009A79BB691B791344DAB2424B9A7197F8B9
:105A18003730002B09D179694248FDF79BFD7B6837
:105A280002221A606FF008032EE1FB695B78012BF4
:105A380004D0FB695B78022B40F0908000233B6325
:105A4800012387F8373000233B637CE00023FB62A7
:105A58000023BB620023FB6213E0BB6919683A6B41
:105A68001346DB009B1A9B000B441A68FB6ADB0099
:105A780013445B781A46BB6A1344BB62FB6A013362
:105A8800FB62BB6919683A6B1346DB009B1A9B00E3
:105A98000B441B791A46FB6A9342DEDB3B6B002BF7
:105AA80017D1BB691B7A03F01003002B11D0BB6917
:105AB800DB891A46BB6A02FB03F35C1D02F0E8F9B6
:105AC80003469C4294BF01230023DBB287F837309A
